{
    "contractName": "StoreMap",
    "abi": [
        {
            "inputs": [],
            "payable": false,
            "stateMutability": "nonpayable",
            "type": "constructor"
        },
        {
            "constant": true,
            "inputs": [
                {
                    "internalType": "bytes32",
                    "name": "",
                    "type": "bytes32"
                }
            ],
            "name": "adjacencyList",
            "outputs": [
                {
                    "internalType": "uint256",
                    "name": "adjnum",
                    "type": "uint256"
                }
            ],
            "payable": false,
            "stateMutability": "view",
            "type": "function"
        },
        {
            "constant": true,
            "inputs": [
                {
                    "internalType": "bytes32",
                    "name": "",
                    "type": "bytes32"
                }
            ],
            "name": "geo_maps",
            "outputs": [
                {
                    "internalType": "uint256",
                    "name": "num",
                    "type": "uint256"
                }
            ],
            "payable": false,
            "stateMutability": "view",
            "type": "function"
        },
        {
            "constant": true,
            "inputs": [],
            "name": "owner",
            "outputs": [
                {
                    "internalType": "address",
                    "name": "",
                    "type": "address"
                }
            ],
            "payable": false,
            "stateMutability": "view",
            "type": "function"
        },
        {
            "constant": false,
            "inputs": [
                {
                    "internalType": "string",
                    "name": "uuid",
                    "type": "string"
                },
                {
                    "internalType": "bytes32",
                    "name": "geohash",
                    "type": "bytes32"
                }
            ],
            "name": "initVehicle",
            "outputs": [],
            "payable": false,
            "stateMutability": "nonpayable",
            "type": "function"
        },
        {
            "constant": false,
            "inputs": [
                {
                    "internalType": "string",
                    "name": "uuid",
                    "type": "string"
                },
                {
                    "internalType": "bytes32",
                    "name": "vehicleGeohash",
                    "type": "bytes32"
                }
            ],
            "name": "setVehicle",
            "outputs": [],
            "payable": false,
            "stateMutability": "nonpayable",
            "type": "function"
        },
        {
            "constant": false,
            "inputs": [
                {
                    "internalType": "bytes32",
                    "name": "passengerGeohash",
                    "type": "bytes32"
                }
            ],
            "name": "getVehicle",
            "outputs": [
                {
                    "internalType": "bytes32",
                    "name": "",
                    "type": "bytes32"
                }
            ],
            "payable": false,
            "stateMutability": "nonpayable",
            "type": "function"
        },
        {
            "constant": false,
            "inputs": [
                {
                    "internalType": "string",
                    "name": "uuid",
                    "type": "string"
                },
                {
                    "internalType": "bytes32",
                    "name": "geohash",
                    "type": "bytes32"
                }
            ],
            "name": "initPassenger",
            "outputs": [],
            "payable": false,
            "stateMutability": "nonpayable",
            "type": "function"
        },
        {
            "constant": false,
            "inputs": [
                {
                    "internalType": "string",
                    "name": "uuid",
                    "type": "string"
                },
                {
                    "internalType": "bytes32",
                    "name": "passengerGeohash",
                    "type": "bytes32"
                }
            ],
            "name": "setPassengerPosition",
            "outputs": [],
            "payable": false,
            "stateMutability": "nonpayable",
            "type": "function"
        },
        {
            "constant": false,
            "inputs": [
                {
                    "internalType": "string",
                    "name": "uuid",
                    "type": "string"
                },
                {
                    "internalType": "bytes32",
                    "name": "startGeohash",
                    "type": "bytes32"
                },
                {
                    "internalType": "bytes32",
                    "name": "endGeohash",
                    "type": "bytes32"
                }
            ],
            "name": "setPassengerDemand",
            "outputs": [],
            "payable": false,
            "stateMutability": "nonpayable",
            "type": "function"
        },
        {
            "constant": true,
            "inputs": [
                {
                    "internalType": "string",
                    "name": "uuid",
                    "type": "string"
                }
            ],
            "name": "getPassengerPos",
            "outputs": [
                {
                    "internalType": "bytes32",
                    "name": "position",
                    "type": "bytes32"
                }
            ],
            "payable": false,
            "stateMutability": "view",
            "type": "function"
        },
        {
            "constant": false,
            "inputs": [
                {
                    "internalType": "string",
                    "name": "uuid",
                    "type": "string"
                }
            ],
            "name": "getPassengerEnd",
            "outputs": [
                {
                    "internalType": "bytes32",
                    "name": "end",
                    "type": "bytes32"
                }
            ],
            "payable": false,
            "stateMutability": "nonpayable",
            "type": "function"
        },
        {
            "constant": true,
            "inputs": [
                {
                    "internalType": "bytes32",
                    "name": "hash",
                    "type": "bytes32"
                }
            ],
            "name": "get_types",
            "outputs": [
                {
                    "internalType": "int32[]",
                    "name": "feature",
                    "type": "int32[]"
                },
                {
                    "internalType": "bytes32[]",
                    "name": "names",
                    "type": "bytes32[]"
                },
                {
                    "internalType": "bytes32[]",
                    "name": "highways",
                    "type": "bytes32[]"
                },
                {
                    "internalType": "bytes32[]",
                    "name": "gtypes",
                    "type": "bytes32[]"
                },
                {
                    "internalType": "bytes32[]",
                    "name": "path",
                    "type": "bytes32[]"
                }
            ],
            "payable": false,
            "stateMutability": "view",
            "type": "function"
        },
        {
            "constant": false,
            "inputs": [
                {
                    "internalType": "uint256",
                    "name": "gid",
                    "type": "uint256"
                },
                {
                    "internalType": "int32",
                    "name": "minzoom",
                    "type": "int32"
                },
                {
                    "internalType": "int32",
                    "name": "cost",
                    "type": "int32"
                },
                {
                    "internalType": "int32",
                    "name": "source",
                    "type": "int32"
                },
                {
                    "internalType": "int32",
                    "name": "target",
                    "type": "int32"
                },
                {
                    "internalType": "bool",
                    "name": "oneway",
                    "type": "bool"
                },
                {
                    "internalType": "bool",
                    "name": "building",
                    "type": "bool"
                },
                {
                    "internalType": "bytes32",
                    "name": "highway",
                    "type": "bytes32"
                },
                {
                    "internalType": "bytes32",
                    "name": "name",
                    "type": "bytes32"
                },
                {
                    "internalType": "bytes32",
                    "name": "gtype",
                    "type": "bytes32"
                },
                {
                    "internalType": "bytes32[]",
                    "name": "path",
                    "type": "bytes32[]"
                }
            ],
            "name": "add_onetype",
            "outputs": [],
            "payable": false,
            "stateMutability": "nonpayable",
            "type": "function"
        },
        {
            "constant": false,
            "inputs": [
                {
                    "internalType": "bytes32",
                    "name": "hash",
                    "type": "bytes32"
                },
                {
                    "internalType": "uint256",
                    "name": "gid",
                    "type": "uint256"
                }
            ],
            "name": "add_area_line",
            "outputs": [],
            "payable": false,
            "stateMutability": "nonpayable",
            "type": "function"
        },
        {
            "constant": false,
            "inputs": [
                {
                    "internalType": "bytes32",
                    "name": "startGeohash",
                    "type": "bytes32"
                },
                {
                    "internalType": "bytes32",
                    "name": "endGeohash",
                    "type": "bytes32"
                }
            ],
            "name": "astar",
            "outputs": [
                {
                    "internalType": "bytes32[]",
                    "name": "backwards",
                    "type": "bytes32[]"
                },
                {
                    "internalType": "uint256",
                    "name": "costAll",
                    "type": "uint256"
                }
            ],
            "payable": false,
            "stateMutability": "nonpayable",
            "type": "function"
        },
        {
            "constant": true,
            "inputs": [
                {
                    "internalType": "bytes32",
                    "name": "nextGeohash",
                    "type": "bytes32"
                },
                {
                    "internalType": "bytes32",
                    "name": "endGeohash",
                    "type": "bytes32"
                }
            ],
            "name": "manhattan",
            "outputs": [
                {
                    "internalType": "uint256",
                    "name": "",
                    "type": "uint256"
                }
            ],
            "payable": false,
            "stateMutability": "view",
            "type": "function"
        },
        {
            "constant": true,
            "inputs": [
                {
                    "internalType": "bytes32",
                    "name": "geohash1",
                    "type": "bytes32"
                },
                {
                    "internalType": "bytes32",
                    "name": "geohash2",
                    "type": "bytes32"
                }
            ],
            "name": "sliceGeoHash",
            "outputs": [
                {
                    "internalType": "string",
                    "name": "",
                    "type": "string"
                },
                {
                    "internalType": "string",
                    "name": "",
                    "type": "string"
                }
            ],
            "payable": false,
            "stateMutability": "view",
            "type": "function"
        },
        {
            "constant": true,
            "inputs": [
                {
                    "internalType": "string",
                    "name": "geohash",
                    "type": "string"
                }
            ],
            "name": "getLatBlock",
            "outputs": [
                {
                    "internalType": "uint256",
                    "name": "",
                    "type": "uint256"
                }
            ],
            "payable": false,
            "stateMutability": "view",
            "type": "function"
        },
        {
            "constant": true,
            "inputs": [
                {
                    "internalType": "string",
                    "name": "geohash",
                    "type": "string"
                }
            ],
            "name": "getLonBlock",
            "outputs": [
                {
                    "internalType": "uint256",
                    "name": "",
                    "type": "uint256"
                }
            ],
            "payable": false,
            "stateMutability": "view",
            "type": "function"
        },
        {
            "constant": true,
            "inputs": [],
            "name": "top",
            "outputs": [
                {
                    "internalType": "bytes32",
                    "name": "",
                    "type": "bytes32"
                }
            ],
            "payable": false,
            "stateMutability": "view",
            "type": "function"
        },
        {
            "constant": false,
            "inputs": [],
            "name": "dequeue",
            "outputs": [],
            "payable": false,
            "stateMutability": "nonpayable",
            "type": "function"
        },
        {
            "constant": false,
            "inputs": [
                {
                    "internalType": "bytes32",
                    "name": "geohash",
                    "type": "bytes32"
                },
                {
                    "internalType": "uint256",
                    "name": "cost",
                    "type": "uint256"
                }
            ],
            "name": "enqueue",
            "outputs": [],
            "payable": false,
            "stateMutability": "nonpayable",
            "type": "function"
        }
    ],
    "bytecode": "0x6080604052600060035560006006556001600a55600a6011556040518060a00160405280601060ff168152602001600860ff168152602001600460ff168152602001600260ff168152602001600160ff1681525060129060056200006592919062000108565b506040518060400160405280602081526020017f30313233343536373839626364656667686a6b6d6e707172737475767778797a81525060139080519060200190620000b39291906200015f565b50348015620000c157600080fd5b50336000806101000a81548173ffffffffffffffffffffffffffffffffffffffff021916908373ffffffffffffffffffffffffffffffffffffffff1602179055506200020e565b8280548282559060005260206000209081019282156200014c579160200282015b828111156200014b578251829060ff1690559160200191906001019062000129565b5b5090506200015b9190620001e6565b5090565b828054600181600116156101000203166002900490600052602060002090601f016020900481019282601f10620001a257805160ff1916838001178555620001d3565b82800160010185558215620001d3579182015b82811115620001d2578251825591602001919060010190620001b5565b5b509050620001e29190620001e6565b5090565b6200020b91905b8082111562000207576000816000905550600101620001ed565b5090565b90565b61322e806200021e6000396000f3fe608060405234801561001057600080fd5b50600436106101425760003560e01c80638da5cb5b116100b8578063d1cf24081161007c578063d1cf240814610b4a578063eeeab5e814610bde578063f90e5ca914610ca3578063facce04814610cdb578063fdcd80aa14610da0578063fe6dcdba14610ebd57610142565b80638da5cb5b146109ad578063957908d1146109f7578063bc6331da14610a01578063c3690ef814610a43578063cbf3b01e14610b0857610142565b80633fb805821161010a5780633fb80582146104b157806344cf2cd714610654578063501df3f11461072357806353f065fd1461076557806368ba6df9146107b15780637f6d50c91461088057610142565b806305380856146101475780630bbc0d2e146102165780630f1ffd7d146102e557806313372041146103aa578063330a1770146103e2575b600080fd5b6102006004803603602081101561015d57600080fd5b810190808035906020019064010000000081111561017a57600080fd5b82018360208201111561018c57600080fd5b803590602001918460018302840111640100000000831117156101ae57600080fd5b91908080601f016020809104026020016040519081016040528093929190818152602001838380828437600081840152601f19601f820116905080830192505050505050509192919290505050610edb565b6040518082815260200191505060405180910390f35b6102cf6004803603602081101561022c57600080fd5b810190808035906020019064010000000081111561024957600080fd5b82018360208201111561025b57600080fd5b8035906020019184600183028401116401000000008311171561027d57600080fd5b91908080601f016020809104026020016040519081016040528093929190818152602001838380828437600081840152601f19601f820116905080830192505050505050509192919290505050610fc3565b6040518082815260200191505060405180910390f35b6103a8600480360360408110156102fb57600080fd5b810190808035906020019064010000000081111561031857600080fd5b82018360208201111561032a57600080fd5b8035906020019184600183028401116401000000008311171561034c57600080fd5b91908080601f016020809104026020016040519081016040528093929190818152602001838380828437600081840152601f19601f82011690508083019250505050505050919291929080359060200190929190505050611039565b005b6103e0600480360360408110156103c057600080fd5b8101908080359060200190929190803590602001909291905050506110ae565b005b6104af600480360360608110156103f857600080fd5b810190808035906020019064010000000081111561041557600080fd5b82018360208201111561042757600080fd5b8035906020019184600183028401116401000000008311171561044957600080fd5b91908080601f016020809104026020016040519081016040528093929190818152602001838380828437600081840152601f19601f8201169050808301925050505050505091929192908035906020019092919080359060200190929190505050611257565b005b6104dd600480360360208110156104c757600080fd5b810190808035906020019092919050505061133e565b60405180806020018060200180602001806020018060200186810386528b818151815260200191508051906020019060200280838360005b83811015610530578082015181840152602081019050610515565b5050505090500186810385528a818151815260200191508051906020019060200280838360005b83811015610572578082015181840152602081019050610557565b50505050905001868103845289818151815260200191508051906020019060200280838360005b838110156105b4578082015181840152602081019050610599565b50505050905001868103835288818151815260200191508051906020019060200280838360005b838110156105f65780820151818401526020810190506105db565b50505050905001868103825287818151815260200191508051906020019060200280838360005b8381101561063857808201518184015260208101905061061d565b505050509050019a505050505050505050505060405180910390f35b61070d6004803603602081101561066a57600080fd5b810190808035906020019064010000000081111561068757600080fd5b82018360208201111561069957600080fd5b803590602001918460018302840111640100000000831117156106bb57600080fd5b91908080601f016020809104026020016040519081016040528093929190818152602001838380828437600081840152601f19601f8201169050808301925050505050505091929192905050506117e3565b6040518082815260200191505060405180910390f35b61074f6004803603602081101561073957600080fd5b8101908080359060200190929190505050611979565b6040518082815260200191505060405180910390f35b61079b6004803603604081101561077b57600080fd5b810190808035906020019092919080359060200190929190505050611c78565b6040518082815260200191505060405180910390f35b61086a600480360360208110156107c757600080fd5b81019080803590602001906401000000008111156107e457600080fd5b8201836020820111156107f657600080fd5b8035906020019184600183028401116401000000008311171561081857600080fd5b91908080601f016020809104026020016040519081016040528093929190818152602001838380828437600081840152601f19601f820116905080830192505050505050509192919290505050611d1b565b6040518082815260200191505060405180910390f35b6109ab600480360361016081101561089757600080fd5b8101908080359060200190929190803560030b9060200190929190803560030b9060200190929190803560030b9060200190929190803560030b90602001909291908035151590602001909291908035151590602001909291908035906020019092919080359060200190929190803590602001909291908035906020019064010000000081111561092857600080fd5b82018360208201111561093a57600080fd5b8035906020019184602083028401116401000000008311171561095c57600080fd5b919080806020026020016040519081016040528093929190818152602001838360200280828437600081840152601f19601f820116905080830192505050505050509192919290505050611eb0565b005b6109b56123ea565b604051808273ffffffffffffffffffffffffffffffffffffffff1673ffffffffffffffffffffffffffffffffffffffff16815260200191505060405180910390f35b6109ff61240f565b005b610a2d60048036036020811015610a1757600080fd5b8101908080359060200190929190505050612667565b6040518082815260200191505060405180910390f35b610b0660048036036040811015610a5957600080fd5b8101908080359060200190640100000000811115610a7657600080fd5b820183602082011115610a8857600080fd5b80359060200191846001830284011164010000000083111715610aaa57600080fd5b91908080601f016020809104026020016040519081016040528093929190818152602001838380828437600081840152601f19601f82011690508083019250505050505050919291929080359060200190929190505050612685565b005b610b3460048036036020811015610b1e57600080fd5b81019080803590602001909291905050506126fa565b6040518082815260200191505060405180910390f35b610b8060048036036040811015610b6057600080fd5b810190808035906020019092919080359060200190929190505050612718565b6040518080602001838152602001828103825284818151815260200191508051906020019060200280838360005b83811015610bc9578082015181840152602081019050610bae565b50505050905001935050505060405180910390f35b610ca160048036036040811015610bf457600080fd5b8101908080359060200190640100000000811115610c1157600080fd5b820183602082011115610c2357600080fd5b80359060200191846001830284011164010000000083111715610c4557600080fd5b91908080601f016020809104026020016040519081016040528093929190818152602001838380828437600081840152601f19601f82011690508083019250505050505050919291929080359060200190929190505050612c40565b005b610cd960048036036040811015610cb957600080fd5b810190808035906020019092919080359060200190929190505050612d5d565b005b610d9e60048036036040811015610cf157600080fd5b8101908080359060200190640100000000811115610d0e57600080fd5b820183602082011115610d2057600080fd5b80359060200191846001830284011164010000000083111715610d4257600080fd5b91908080601f016020809104026020016040519081016040528093929190818152602001838380828437600081840152601f19601f82011690508083019250505050505050919291929080359060200190929190505050612e0d565b005b610dd660048036036040811015610db657600080fd5b810190808035906020019092919080359060200190929190505050612f2a565b604051808060200180602001838103835285818151815260200191508051906020019080838360005b83811015610e1a578082015181840152602081019050610dff565b50505050905090810190601f168015610e475780820380516001836020036101000a031916815260200191505b50838103825284818151815260200191508051906020019080838360005b83811015610e80578082015181840152602081019050610e65565b50505050905090810190601f168015610ead5780820380516001836020036101000a031916815260200191505b5094505050505060405180910390f35b610ec561311c565b6040518082815260200191505060405180910390f35b60006004826040518082805190602001908083835b60208310610f135780518252602082019150602081019050602083039250610ef0565b6001836020036101000a038019825116818451168082178552505050505050905001915050908152602001604051809103902060030154905060016004836040518082805190602001908083835b60208310610f845780518252602082019150602081019050602083039250610f61565b6001836020036101000a038019825116818451168082178552505050505050905001915050908152602001604051809103902060040181905550919050565b60006004826040518082805190602001908083835b60208310610ffb5780518252602082019150602081019050602083039250610fd8565b6001836020036101000a0380198251168184511680821785525050505050509050019150509081526020016040518091039020600101549050919050565b806001836040518082805190602001908083835b60208310611070578051825260208201915060208101905060208303925061104d565b6001836020036101000a0380198251168184511680821785525050505050509050019150509081526020016040518091039020600101819055505050565b600060146000018054905014156110f357601460000160009080600181540180825580915050906001820390600052602060002001600090919260001b909190915055505b6014600001829080600181540180825580915050906001820390600052602060002001600090919290919091505550806014600101600084815260200190815260200160002081905550600060016014600001805490500390505b6001811180156111c75750601460010160006014600001838154811061117057fe5b9060005260206000200154815260200190815260200160002054601460010160006014600001600285816111a057fe5b04815481106111ab57fe5b9060005260206000200154815260200190815260200160002054115b1561125257826014600001600283816111dc57fe5b04815481106111e757fe5b906000526020600020015460146000016002848161120157fe5b048154811061120c57fe5b9060005260206000200160006014600001858154811061122857fe5b9060005260206000200160008491905055839190505550506002818161124a57fe5b04905061114e565b505050565b816004846040518082805190602001908083835b6020831061128e578051825260208201915060208101905060208303925061126b565b6001836020036101000a038019825116818451168082178552505050505050905001915050908152602001604051809103902060020181905550806004846040518082805190602001908083835b602083106112ff57805182526020820191506020810190506020830392506112dc565b6001836020036101000a038019825116818451168082178552505050505050905001915050908152602001604051809103902060030181905550505050565b606080606080606060006008600088815260200190815260200160002060000154905060008090506000808311156117d757826007026040519080825280602002602001820160405280156113a25781602001602082028038833980820191505090505b509750826040519080825280602002602001820160405280156113d45781602001602082028038833980820191505090505b509650826040519080825280602002602001820160405280156114065781602001602082028038833980820191505090505b509550826040519080825280602002602001820160405280156114385781602001602082028038833980820191505090505b50945060008091505b838210156116c757600860008b8152602001908152602001600020600101600083815260200190815260200160002054905060006007600083815260200190815260200160002090506000600784029050828b828151811061149f57fe5b602002602001019060030b908160030b815250508160000160009054906101000a900460030b8b60018301815181106114d457fe5b602002602001019060030b908160030b815250508160000160049054906101000a900460030b8b600283018151811061150957fe5b602002602001019060030b908160030b815250508160030160009054906101000a900460030b8b600383018151811061153e57fe5b602002602001019060030b908160030b815250508160030160049054906101000a900460030b8b600483018151811061157357fe5b602002602001019060030b908160030b815250508160000160089054906101000a900460ff16156115c85760018b60058301815181106115af57fe5b602002602001019060030b908160030b815250506115ee565b60008b60058301815181106115d957fe5b602002602001019060030b908160030b815250505b8160000160099054906101000a900460ff161561162f5760018b600683018151811061161657fe5b602002602001019060030b908160030b81525050611655565b60008b600683018151811061164057fe5b602002602001019060030b908160030b815250505b81600501546001860101945081600201548a858151811061167257fe5b602002602001018181525050816001015489858151811061168f57fe5b60200260200101818152505081600401548885815181106116ac57fe5b60200260200101818152505050508180600101925050611441565b826040519080825280602002602001820160405280156116f65781602001602082028038833980820191505090505b5094506000809050600092505b848310156117d457600860008c815260200190815260200160002060010160008481526020019081526020016000205491506000600760008481526020019081526020016000209050806005015460001b87838060010194508151811061176657fe5b60200260200101818152505060008090505b81600501548110156117c557816006016000828152602001908152602001600020548884806001019550815181106117ac57fe5b6020026020010181815250508080600101915050611778565b50508280600101935050611703565b50505b50505091939590929450565b60008060019050600080905060008090505b845181101561196e57600085828151811061180c57fe5b602001015160f81c60f81b9050600080600090505b601380546001816001161561010002031660029004905081101561190257827effffffffffffffffffffffffffffffffffffffffffffffffffffffffffffff191660138281546001816001161561010002031660029004811061188057fe5b81546001161561189f5790600052602060002090602091828204019190065b9054901a7f0100000000000000000000000000000000000000000000000000000000000000027effffffffffffffffffffffffffffffffffffffffffffffffffffffffffffff191614156118f557809150611902565b8080600101915050611821565b5060008090505b600581101561195e5760006012828154811061192157fe5b90600052602060002001549050861561194c5760028602955060008184161461194b576001860195505b5b86159650508080600101915050611909565b50505080806001019150506117f5565b508092505050919050565b6000806001600260006001815260200190815260200160002060405180828054600181600116156101000203166002900480156119ed5780601f106119cb5761010080835404028352918201916119ed565b820191906000526020600020905b8154815290600101906020018083116119d9575b50509150509081526020016040518091039020600101549050600080600090505b600354811015611be257611a228584611c78565b611ab2866001600260008681526020019081526020016000206040518082805460018160011615610100020316600290048015611a965780601f10611a74576101008083540402835291820191611a96565b820191906000526020600020905b815481529060010190602001808311611a82575b5050915050908152602001604051809103902060010154611c78565b1015611bd55760006001600260008481526020019081526020016000206040518082805460018160011615610100020316600290048015611b2a5780601f10611b08576101008083540402835291820191611b2a565b820191906000526020600020905b815481529060010190602001808311611b16575b50509150509081526020016040518091039020600201541415611bd4576001600260008381526020019081526020016000206040518082805460018160011615610100020316600290048015611bb75780601f10611b95576101008083540402835291820191611bb7565b820191906000526020600020905b815481529060010190602001808311611ba3575b505091505090815260200160405180910390206001015492508091505b5b8080600101915050611a0e565b50600180600260008481526020019081526020016000206040518082805460018160011615610100020316600290048015611c545780601f10611c32576101008083540402835291820191611c54565b820191906000526020600020905b815481529060010190602001808311611c40575b50509150509081526020016040518091039020600201819055508192505050919050565b600081831415611c8b5760009050611d15565b606080611c988585612f2a565b80925081935050506000611cab83611d1b565b90506000611cb883611d1b565b90506000611cc5856117e3565b90506000611cd2856117e3565b905060008085851115611ce9578585039150611cef565b84860391505b83831115611d01578383039050611d07565b82840390505b808201985050505050505050505b92915050565b60008060019050600080905060008090505b8451811015611ea5576000858281518110611d4457fe5b602001015160f81c60f81b9050600080600090505b6013805460018160011615610100020316600290049050811015611e3a57827effffffffffffffffffffffffffffffffffffffffffffffffffffffffffffff1916601382815460018160011615610100020316600290048110611db857fe5b815460011615611dd75790600052602060002090602091828204019190065b9054901a7f0100000000000000000000000000000000000000000000000000000000000000027effffffffffffffffffffffffffffffffffffffffffffffffffffffffffffff19161415611e2d57809150611e3a565b8080600101915050611d59565b5060008090505b6005811015611e9557600060128281548110611e5957fe5b9060005260206000200154905086611e8357600286029550600081841614611e82576001860195505b5b86159650508080600101915050611e41565b5050508080600101915050611d2d565b508092505050919050565b6000809054906101000a900473ffffffffffffffffffffffffffffffffffffffff1673ffffffffffffffffffffffffffffffffffffffff163373ffffffffffffffffffffffffffffffffffffffff1614156123dd5789600760008d815260200190815260200160002060000160006101000a81548163ffffffff021916908360030b63ffffffff16021790555088600760008d815260200190815260200160002060000160046101000a81548163ffffffff021916908360030b63ffffffff16021790555087600760008d815260200190815260200160002060030160006101000a81548163ffffffff021916908360030b63ffffffff16021790555086600760008d815260200190815260200160002060030160046101000a81548163ffffffff021916908360030b63ffffffff16021790555085600760008d815260200190815260200160002060000160086101000a81548160ff02191690831515021790555084600760008d815260200190815260200160002060000160096101000a81548160ff02191690831515021790555083600760008d81526020019081526020016000206001018190555082600760008d81526020019081526020016000206002018190555081600760008d8152602001908152602001600020600401819055508060008151811061209f57fe5b602002602001015160096000836000815181106120b857fe5b60200260200101518152602001908152602001600020600101600060096000856000815181106120e457fe5b60200260200101518152602001908152602001600020600001548152602001908152602001600020600001819055508060018251038151811061212357fe5b6020026020010151600960008360008151811061213c57fe5b602002602001015181526020019081526020016000206001016000600960008560008151811061216857fe5b60200260200101518152602001908152602001600020600001548152602001908152602001600020600101819055508660096000836000815181106121a957fe5b60200260200101518152602001908152602001600020600101600060096000856000815181106121d557fe5b6020026020010151815260200190815260200160002060000154815260200190815260200160002060020160006101000a81548163ffffffff021916908360030b63ffffffff16021790555088600960008360008151811061223357fe5b602002602001015181526020019081526020016000206001016000600960008560008151811061225f57fe5b6020026020010151815260200190815260200160002060000154815260200190815260200160002060020160046101000a81548163ffffffff021916908360030b63ffffffff1602179055508a60096000836000815181106122bd57fe5b60200260200101518152602001908152602001600020600101600060096000856000815181106122e957fe5b60200260200101518152602001908152602001600020600001600081548092919060010191905055815260200190815260200160002060020160086101000a81548163ffffffff021916908360030b63ffffffff1602179055506000600760008d815260200190815260200160002060050154905060008090505b82518110156123bf5782818151811061237957fe5b6020026020010151600760008f81526020019081526020016000206006016000848060010195508152602001908152602001600020819055508080600101915050612364565b5080600760008e815260200190815260200160002060050181905550505b5050505050505050505050565b6000809054906101000a900473ffffffffffffffffffffffffffffffffffffffff1681565b60016014600001805490501161242457600080fd5b60016014600001805490501161243957600080fd5b600061244361311c565b905060146000016001601460000180549050038154811061246057fe5b9060005260206000200154601460000160018154811061247c57fe5b9060005260206000200181905550601460000180548061249857fe5b600190038181906000526020600020016000905590556000600190505b6014600001805490506002820210156126495760006002820290506014600001805490506001820110156125585760146001016000601460000160018401815481106124fd57fe5b9060005260206000200154815260200190815260200160002054601460010160006014600001848154811061252e57fe5b906000526020600020015481526020019081526020016000205411156125575780806001019150505b5b601460010160006014600001838154811061256f57fe5b906000526020600020015481526020019081526020016000205460146001016000601460000185815481106125a057fe5b906000526020600020015481526020019081526020016000205410156125c65750612649565b601460000181815481106125d657fe5b9060005260206000200154601460000183815481106125f157fe5b90600052602060002001546014600001848154811061260c57fe5b9060005260206000200160006014600001858154811061262857fe5b906000526020600020016000849190505583919050555050809150506124b5565b60146001016000838152602001908152602001600020600090555050565b60096020528060005260406000206000915090508060000154905081565b806004836040518082805190602001908083835b602083106126bc5780518252602082019150602081019050602083039250612699565b6001836020036101000a0380198251168184511680821785525050505050509050019150509081526020016040518091039020600101819055505050565b60086020528060005260406000206000915090508060000154905081565b606060006127278460006110ae565b6000600e60020160008681526020019081526020016000208190555083600e6001016000600e60000154815260200190815260200160002081905550600e600001600081548092919060010191905055506000805b60016014600001805490501115612c375761279561311c565b915061279f61240f565b60006009600084815260200190815260200160002090508583141561298b57600e60020160008481526020019081526020016000205493506000869050600b600001546040519080825280602002602001820160405280156128105781602001602082028038833980820191505090505b50955060008090505b88821461285f578187828151811061282d57fe5b602002602001018181525050600b60020160008381526020019081526020016000205491508080600101915050612819565b8887828151811061286c57fe5b60200260200101818152505060008090505b600b600001548110156128e257600b6002016000600b600101600084815260200190815260200160002054815260200190815260200160002060009055600b600101600082815260200190815260200160002060009055808060010191505061287e565b506000600b6000018190555060008090505b600e6000015481101561295857600e6002016000600e600101600084815260200190815260200160002054815260200190815260200160002060009055600e60010160008281526020019081526020016000206000905580806001019150506128f4565b506000600e600001819055505b600160146000018054905011156129835761297e61240f565b612965565b505050612c37565b60008090505b8160000154811015612c3057600060096000868152602001908152602001600020600101600083815260200190815260200160002060020160049054906101000a900460030b60030b600e6002016000878152602001908152602001600020540190506000600e6002016000856001016000868152602001908152602001600020600101548152602001908152602001600020541480612a5e5750600e60020160008460010160008581526020019081526020016000206001015481526020019081526020016000205481105b15612c22576000600e6002016000856001016000868152602001908152602001600020600101548152602001908152602001600020541415612ae85782600101600083815260200190815260200160002060010154600e6001016000600e60000154815260200190815260200160002081905550600e600001600081548092919060010191905055505b80600e600201600085600101600086815260200190815260200160002060010154815260200190815260200160002081905550612b3d8360010160008481526020019081526020016000206001015489611c78565b600a548202019350612b6783600101600084815260200190815260200160002060010154856110ae565b6000801b600b6002016000856001016000868152602001908152602001600020600101548152602001908152602001600020541415612bee5782600101600083815260200190815260200160002060010154600b6001016000600b60000154815260200190815260200160002081905550600b600001600081548092919060010191905055505b84600b6002016000856001016000868152602001908152602001600020600101548152602001908152602001600020819055505b508080600101915050612991565b505061277c565b50509250929050565b806001836040518082805190602001908083835b60208310612c775780518252602082019150602081019050602083039250612c54565b6001836020036101000a03801982511681845116808217855250505050505090500191505090815260200160405180910390206001018190555060006001836040518082805190602001908083835b60208310612ce95780518252602082019150602081019050602083039250612cc6565b6001836020036101000a038019825116818451168082178552505050505050905001915050908152602001604051809103902060020181905550816002600060035481526020019081526020016000209080519060200190612d4c929190613154565b506001600354016003819055505050565b6000809054906101000a900473ffffffffffffffffffffffffffffffffffffffff1673ffffffffffffffffffffffffffffffffffffffff163373ffffffffffffffffffffffffffffffffffffffff161415612e095760006008600084815260200190815260200160002060000160008154809291906001019190505590508160086000858152602001908152602001600020600101600083815260200190815260200160002081905550505b5050565b806004836040518082805190602001908083835b60208310612e445780518252602082019150602081019050602083039250612e21565b6001836020036101000a03801982511681845116808217855250505050505090500191505090815260200160405180910390206001018190555060006004836040518082805190602001908083835b60208310612eb65780518252602082019150602081019050602083039250612e93565b6001836020036101000a038019825116818451168082178552505050505050905001915050908152602001604051809103902060040181905550816005600060065481526020019081526020016000209080519060200190612f19929190613154565b506001600654016006819055505050565b606080600084905060008490506000602060ff16905060008060009050600091505b82821015612fcf57838260208110612f6057fe5b1a60f81b7effffffffffffffffffffffffffffffffffffffffffffffffffffffffffffff1916858360208110612f9257fe5b1a60f81b7effffffffffffffffffffffffffffffffffffffffffffffffffffffffffffff191614612fc257612fcf565b8180600101925050612f4c565b8160115403905060008090506060826040519080825280601f01601f1916602001820160405280156130105781602001600182028038833980820191505090505b5090506060836040519080825280601f01601f1916602001820160405280156130485781602001600182028038833980820191505090505b50905060008590505b6011548110156131065788816020811061306757fe5b1a60f81b83858151811061307757fe5b60200101907effffffffffffffffffffffffffffffffffffffffffffffffffffffffffffff1916908160001a9053508781602081106130b257fe5b1a60f81b8285815181106130c257fe5b60200101907effffffffffffffffffffffffffffffffffffffffffffffffffffffffffffff1916908160001a90535083806001019450508080600101915050613051565b5081819950995050505050505050509250929050565b600060016014600001805490501161313357600080fd5b601460000160018154811061314457fe5b9060005260206000200154905090565b828054600181600116156101000203166002900490600052602060002090601f016020900481019282601f1061319557805160ff19168380011785556131c3565b828001600101855582156131c3579182015b828111156131c25782518255916020019190600101906131a7565b5b5090506131d091906131d4565b5090565b6131f691905b808211156131f25760008160009055506001016131da565b5090565b9056fea265627a7a723158208e13570adbc2a11f25a60d02d83034259e7cbcd07c909c9114edd50736c5a8cc64736f6c63430005100032",
    "source": "pragma solidity ^0.5.16;\n\ncontract StoreMap{\n\t//\t\n\t/*\n\t//\taddress 160\n\t//\t\n\t*/\n\taddress public owner;\n\n\t//  \n\t//  _; \n\t//  owner \n\t// \n\tmodifier restricted(){\n    \tif (msg.sender == owner) _;\n  \t}\n\n    //\n    struct vehicle {\n        string uuid;\n        bytes32 position;\n        uint256 status;\n    }\n\n    mapping(string => vehicle) vehicles;\n\n    mapping(uint256 => string) vehiclesList;\n    uint256 vehiclesLength = 0;\n\n    function initVehicle(\n        string memory uuid,\n        bytes32 geohash\n    ) public {\n        vehicles[uuid].position = geohash;\n        vehicles[uuid].status = 0;\n        vehiclesList[vehiclesLength] = uuid;\n        vehiclesLength = vehiclesLength + 1;\n    }\n\n    function setVehicle(string memory uuid, bytes32 vehicleGeohash) public {\n        vehicles[uuid].position = vehicleGeohash;\n    }\n\n    function getVehicle(bytes32 passengerGeohash) public returns (bytes32){\n        bytes32 position = vehicles[vehiclesList[1]].position;\n        // for(uint256 i = 0; i < vehiclesLength; i++){\n        //     if(vehicles[vehiclesList[i]].status == 0){\n        //         position = vehicles[vehiclesList[i]].position;\n        //         break;\n        //     }\n        // }\n        uint256 index;\n        for(uint256 i = 0; i < vehiclesLength; i++){\n            if(manhattan(passengerGeohash,vehicles[vehiclesList[i]].position) < manhattan(passengerGeohash,position)){\n                if(vehicles[vehiclesList[i]].status == 0){\n                    position = vehicles[vehiclesList[i]].position;\n                    index = i;\n                }\n            }\n        }\n        vehicles[vehiclesList[index]].status = 1;\n        return position;\n    }\n\n    \n    //\n    struct passenger {\n        string uuid;\n        bytes32 position;\n        bytes32 start;\n        bytes32 end;\n        uint256 status;\n    }\n\n    mapping(string => passenger) passengers;\n\n    mapping(uint256 => string) passengersList;\n    uint256 passengersLength = 0;\n\n    function initPassenger(\n        string memory uuid,\n        bytes32 geohash\n    ) public {\n        passengers[uuid].position = geohash;\n        passengers[uuid].status = 0;\n        passengersList[passengersLength] = uuid;\n        passengersLength = passengersLength + 1;\n    }\n\n    function setPassengerPosition(\n        string memory uuid,\n        bytes32 passengerGeohash\n    ) public {\n        passengers[uuid].position = passengerGeohash;\n    }\n    \n    function setPassengerDemand(\n        string memory uuid,\n        bytes32 startGeohash,\n        bytes32 endGeohash\n    ) public {\n        passengers[uuid].start = startGeohash;\n        passengers[uuid].end = endGeohash;\n    }\n\n    function getPassengerPos(string memory uuid) public view returns (bytes32 position){\n        position = passengers[uuid].position;\n    }\n\n    function getPassengerEnd(string memory uuid) public returns (bytes32 end){\n        end = passengers[uuid].end;\n        passengers[uuid].status = 1;\n    }\n\n\t// \n\tstruct one_type\n\t{\t\n\t\tint32 minzoom;\n\t\tint32 cost;\n\t\tbool  oneway;\n        bool  building; \n        bytes32 highway;\n        bytes32 name;   // \n        int32 source;\n        int32 target;\n        bytes32 gtype;\n\t\tuint256 path_num;\n\t\tmapping(uint256 => bytes32) path;\n\t}\n\t//gid->one_type,store real types\n\tmapping(uint256 => one_type) types;\n\t// ,\n\tstruct  area_types{\n\t\tuint256 num;\n\t\t// num->gid,store gids of roads in the area\n\t\tmapping(uint256 => uint256) types_list;\n\t}\n\t// \n\tmapping(bytes32 => area_types) public geo_maps;\n\n    //-----------------cjz--------------------------------------------------\n    //\n    struct adj\n\t{\t\n        bytes32 sourceGeohash;\n        bytes32 targetGeohash;\n        int32 target;\n\t\tint32 cost;\n\t\tint32 gid;\n\t}\n\t//\n\tstruct adj_types{\n\t    uint256 adjnum;\n\t    mapping (uint256 => adj) adjs;\n\t}\n    //geohash\n    mapping(bytes32 => adj_types) public adjacencyList;\n    //P\n\tuint256 P = 1;\n\tstruct pathType{\n\t    uint256 num;\n\t    mapping(uint256 => bytes32) index;\n\t    mapping(bytes32 => bytes32) map;\n\t}\n\tstruct costSofarType{\n\t    uint256 num;\n\t    mapping(uint256 => bytes32) index;\n\t    mapping(bytes32 => uint256) map;\n\t}\n\t//\n    pathType paths;\n    //\n    costSofarType costSofar;\n    //-----------------cjz--------------------------------------------------\n    \n\t// owner\n\tconstructor() public{\n\t\towner = msg.sender;\n\t}\n\n\t// geohash\n\tfunction get_types(bytes32 hash) view public returns (int32[] memory feature, bytes32[] memory names, bytes32[] memory highways, bytes32[] memory gtypes, bytes32[] memory path) {\n\t\tuint256 num = geo_maps[hash].num;\n\t\tuint256 path_num = 0;\n\t\t//different parm in different domain may cause duplicate declare error when compile, maybe a bug\n\t\tuint256 i;\n\n\t\tif(num > 0){\n\t\t\tfeature = new int32[](7 * num);\n\t\t\tnames = new bytes32[]( num );\n\t\t\thighways = new bytes32[]( num );\n\t\t\tgtypes = new bytes32[]( num );\n\t\t\tuint256 gid;\n\t\t\tfor(i=0; i < num; i++){\n\t\t\t\tgid = geo_maps[hash].types_list[i]; \n\t\t\t\tone_type storage single_type = types[gid];\n\t\t\t\tuint256 base = i * 7;\n\t\t\t\tfeature[base] = int32(gid);\n\t\t\t\tfeature[base + 1] = single_type.minzoom;\n\t\t\t\tfeature[base + 2] = single_type.cost;\n                feature[base + 3] = single_type.source;\n                feature[base + 4] = single_type.target;\n\t\t\t\tif(single_type.oneway){\n\t\t\t\t\tfeature[base + 5] = 1;\n\t\t\t\t}\n\t\t\t\telse{\n\t\t\t\t\tfeature[base + 5] = 0;\n\t\t\t\t}\n\t\t\t\tif(single_type.building){\n\t\t\t\t\tfeature[base + 6] = 1;\n\t\t\t\t}\n\t\t\t\telse{\n\t\t\t\t\tfeature[base + 6] = 0;\n\t\t\t\t}\n\t\t\t\tpath_num = path_num + 1 + single_type.path_num;\n\t\t\t\tnames[i] = single_type.name;\n\t\t\t\thighways[i] = single_type.highway;\n\t\t\t\tgtypes[i] = single_type.gtype;\n\t\t\t}\n\t\t\tpath = new bytes32[](path_num);\n\t\t\tuint256 pos = 0;\n\t\t\tfor(i=0; i< num; i++){\n\t\t\t\tgid = geo_maps[hash].types_list[i];\n\t\t\t\t//may cause duplicate declare, don't know why\n\t\t\t\tone_type storage single_type2 = types[gid];\n\t\t\t\tpath[pos++] = bytes32(single_type2.path_num);\n\t\t\t\tfor(uint256 j=0; j< single_type2.path_num; j++){\n\t\t\t\t\tpath[pos++] = single_type2.path[j];\n\t\t\t\t}\n\t\t\t}\n\t\t}\n    }\n\n\t// \n\tfunction add_onetype(uint256 gid, int32 minzoom, int32 cost, int32 source, int32 target, bool oneway, bool building, bytes32 highway, bytes32 name, bytes32 gtype, bytes32[] memory path) public restricted {\n\t\ttypes[gid].minzoom = minzoom;\n\t\ttypes[gid].cost = cost;\n        types[gid].source = source;\n        types[gid].target = target;\n\t    types[gid].oneway = oneway;\n\t\ttypes[gid].building = building;\n\t\ttypes[gid].highway = highway;\n\t\ttypes[gid].name = name;\n\t\ttypes[gid].gtype = gtype;\n\n        adjacencyList[path[0]].adjs[adjacencyList[path[0]].adjnum].sourceGeohash = path[0];\n        adjacencyList[path[0]].adjs[adjacencyList[path[0]].adjnum].targetGeohash = path[path.length - 1];\n\t\tadjacencyList[path[0]].adjs[adjacencyList[path[0]].adjnum].target = target;\n\t\tadjacencyList[path[0]].adjs[adjacencyList[path[0]].adjnum].cost = cost;\n\t\tadjacencyList[path[0]].adjs[adjacencyList[path[0]].adjnum++].gid = int32(gid);\n\n\t\tuint256 num = types[gid].path_num;\n\t\tfor(uint256 i=0; i< path.length; i++){\n\t\t\ttypes[gid].path[num++] = path[i];\n\t\t}\n\t\ttypes[gid].path_num = num;\n    }\n\n\t//bind a line to an area \n\tfunction add_area_line(bytes32 hash, uint256 gid) public restricted {\n\t\t\tuint256 num = geo_maps[hash].num++;\n\t\t\tgeo_maps[hash].types_list[num] = gid;\n\t}\n    //astar\n    function astar(bytes32 startGeohash, bytes32 endGeohash) public returns(bytes32[] memory backwards, uint256 costAll){\n        enqueue(startGeohash, 0);\n        costSofar.map[startGeohash] = 0;\n        costSofar.index[costSofar.num] = startGeohash;\n        costSofar.num++;\n        bytes32 currentGeohash;\n        uint256 priority;\n        while (frontier.geohashs.length > 1) {\n            currentGeohash = top(); \n            //remove smallest item\n            dequeue();\n            adj_types storage adjNodes = adjacencyList[currentGeohash];\n            if (currentGeohash == endGeohash) {\n                costAll = costSofar.map[currentGeohash];\n                //paths\n                bytes32 current = endGeohash;\n                backwards = new bytes32[](paths.num);\n                uint256 i = 0;\n                while(current != startGeohash){\n                    backwards[i] = current;\n                    current = paths.map[current];\n                    i++;\n                }\n                backwards[i] = startGeohash;\n                //\n                for(uint256 j = 0; j < paths.num; j++){\n                    delete paths.map[paths.index[j]];\n                    delete paths.index[j];\n                }\n                paths.num = 0;\n                for(uint256 j = 0; j < costSofar.num; j++){\n                    delete costSofar.map[costSofar.index[j]];\n                    delete costSofar.index[j];\n                }\n                costSofar.num = 0;\n                while (frontier.geohashs.length > 1){\n                    dequeue();\n                }\n                break;\n            }\n    \n            for (uint256 i = 0; i < adjNodes.adjnum; i++) {\n                uint256 newCost = costSofar.map[currentGeohash] + uint256(adjacencyList[currentGeohash].adjs[i].cost);\n    \n                if (costSofar.map[adjNodes.adjs[i].targetGeohash] == 0 || newCost < costSofar.map[adjNodes.adjs[i].targetGeohash]) {\n                    if(costSofar.map[adjNodes.adjs[i].targetGeohash] == 0){\n                        costSofar.index[costSofar.num] = adjNodes.adjs[i].targetGeohash;\n                        costSofar.num++;\n                    }\n                    costSofar.map[adjNodes.adjs[i].targetGeohash] = newCost;\n                    priority = newCost * P + manhattan(adjNodes.adjs[i].targetGeohash, endGeohash);\n                    enqueue(adjNodes.adjs[i].targetGeohash, priority);\n                    if(paths.map[adjNodes.adjs[i].targetGeohash] == 0x0000000000000000000000000000000000000000000000000000000000000000){\n                        paths.index[paths.num] = adjNodes.adjs[i].targetGeohash;\n                        paths.num++;\n                    }\n                    paths.map[adjNodes.adjs[i].targetGeohash] = currentGeohash;\n                }\n            }\n        }\n    }\n    \n    \n    function manhattan(bytes32 nextGeohash, bytes32 endGeohash) public view returns (uint256){\n        if(nextGeohash == endGeohash){\n            return 0;\n        }\n        //geohash\n        \n        //\n        string memory shortNext;\n        string memory shortEnd;\n        \n        (shortNext, shortEnd) = sliceGeoHash(nextGeohash, endGeohash);\n\n        uint256 dislat1 = getLatBlock(shortNext);\n        uint256 dislat2 = getLatBlock(shortEnd);\n    \tuint256 dislon1 = getLonBlock(shortNext);\n    \tuint256 dislon2 = getLonBlock(shortEnd);\n        \n        uint256 dislat;\n        uint256 dislon;\n        if(dislat2 > dislat1){\n            dislat = dislat2 - dislat1;\n        }else{\n            dislat = dislat1 - dislat2;\n        }\n        if(dislon2 > dislon1){\n            dislon = dislon2 - dislon1;\n        }else{\n            dislon = dislon1 - dislon2;\n        }\n        return (dislat + dislon);\n    }\n    \n\t//geohash10\n\tuint256 PRECISION = 10;\n\tfunction sliceGeoHash(bytes32 geohash1, bytes32 geohash2) public view returns (string memory, string memory){\n        bytes32 geo1 = geohash1;\n        bytes32 geo2 = geohash2;\n        uint256 len = geo1.length;\n        //geohash different start index\n        uint256 index;\n        //geohash different length\n        uint256 dif = 0;\n        for (index = 0; index < len; index++) {\n            if (geo1[index] != geo2[index]) {\n                break;\n            }\n        }\n        dif = PRECISION - index;\n        uint256 index2 = 0;\n        bytes memory shortGeo1 = new bytes(dif);\n        bytes memory shortGeo2 = new bytes(dif);\n        for (uint256 j = index; j < PRECISION; j++) {\n            shortGeo1[index2] = geo1[j];\n            shortGeo2[index2] = geo2[j];\n            index2++;\n        }\n        return (string(shortGeo1), string(shortGeo2));\n    }\n\t\n    uint256[] Bits = [16, 8, 4, 2, 1];\n    string Base32 = \"0123456789bcdefghjkmnpqrstuvwxyz\";\n\t//geohash\n    function getLatBlock(string memory geohash) public view returns (uint256) {\n        //geohash\n        bool even = true;\n        uint256 lat = 0;\n        for (uint256 i = 0; i < bytes(geohash).length; i++) {\n            byte c = bytes(geohash)[i];\n            uint256 cd;\n            for (uint256 j = 0; j < bytes(Base32).length; j++) {\n                if (bytes(Base32)[j] == c) {\n                    cd = j;\n                    break;\n                }\n            }\n            for (uint256 j = 0; j < 5; j++) {\n                uint256 mask = Bits[j];\n                if (!even) {\n                    lat = lat * 2;\n                    if ((cd & mask) != 0) {\n                        lat = lat + 1;\n                    }\n                }\n                even = !even;\n            }\n        }\n        return lat;\n    }\n    //geohash\n    function getLonBlock(string memory geohash) public view returns (uint256) {\n        //geohash\n        bool even = true;\n        uint256 lon = 0;\n        for (uint256 i = 0; i < bytes(geohash).length; i++) {\n            byte c = bytes(geohash)[i];\n            uint256 cd;\n            for (uint256 j = 0; j < bytes(Base32).length; j++) {\n                if (bytes(Base32)[j] == c) {\n                    cd = j;\n                    break;\n                }\n            }\n            for (uint256 j = 0; j < 5; j++) {\n                uint256 mask = Bits[j];\n                if (even) {\n                    lon = lon * 2;\n                    if ((cd & mask) != 0) {\n                        lon = lon + 1;\n                    }\n                }\n                even = !even;\n            }\n        }\n        return lon;\n    }\n\t\n    //\n    struct Heap {\n        bytes32[] geohashs;\n        mapping(bytes32 => uint256) map;\n    }\n    //\n    Heap frontier;\n    //\n    modifier notEmpty() {\n        require(frontier.geohashs.length > 1);\n        _;\n    }\n    //\n    function top() public view notEmpty() returns(bytes32) {\n        return frontier.geohashs[1];\n    }\n    //\n    function dequeue() public notEmpty(){\n        require(frontier.geohashs.length > 1);\n        \n        bytes32 toReturn = top();\n        frontier.geohashs[1] = frontier.geohashs[frontier.geohashs.length - 1];\n        frontier.geohashs.pop();\n\n        uint256 i = 1;\n\n        while (i * 2 < frontier.geohashs.length) {\n            uint256 j = i * 2;\n\n            if (j + 1 < frontier.geohashs.length)\n                if (frontier.map[frontier.geohashs[j]] > frontier.map[frontier.geohashs[j + 1]]) \n                    j++;\n            \n            if (frontier.map[frontier.geohashs[i]] < frontier.map[frontier.geohashs[j]])\n                break;\n            \n            (frontier.geohashs[i], frontier.geohashs[j]) = (frontier.geohashs[j], frontier.geohashs[i]);\n            i = j;\n        }\n        delete frontier.map[toReturn];\n    }\n    //\n    function enqueue(bytes32 geohash, uint256 cost) public {\n        if (frontier.geohashs.length == 0) \n            // initialize\n            frontier.geohashs.push(0x0000000000000000000000000000000000000000000000000000000000000000); \n        \n        frontier.geohashs.push(geohash);\n        frontier.map[geohash] = cost;\n        uint256 i = frontier.geohashs.length - 1;\n        while (i > 1 && frontier.map[frontier.geohashs[i / 2]] > frontier.map[frontier.geohashs[i]]) {\n            (frontier.geohashs[i / 2], frontier.geohashs[i]) = (geohash, frontier.geohashs[i / 2]);\n            i /= 2;\n        }\n    }\n}\n\n\n",
    "sourcePath": "/home/ubuntu//testRealContract/contracts/StoreMap.sol",
    "compiler": {
        "name": "solc",
        "version": "0.5.16+commit.9c3226ce.Emscripten.clang"
    },
    "schemaVersion": "3.2.5",
    "updatedAt": "2021-11-27T08:05:15.502Z",
    "networkType": "ethereum",
    "devdoc": {
        "methods": {}
    },
    "userdoc": {
        "methods": {}
    }
}